{
  "_format": "hh-sol-artifact-1",
  "contractName": "ForenXEvidence",
  "sourceName": "contracts/ForenXEvidence.sol",
  "abi": [
    {
      "inputs": [],
      "stateMutability": "nonpayable",
      "type": "constructor"
    },
    {
      "anonymous": false,
      "inputs": [
        {
          "indexed": true,
          "internalType": "string",
          "name": "evidenceId",
          "type": "string"
        },
        {
          "indexed": true,
          "internalType": "address",
          "name": "collector",
          "type": "address"
        },
        {
          "indexed": false,
          "internalType": "uint256",
          "name": "timestamp",
          "type": "uint256"
        }
      ],
      "name": "EvidenceAdded",
      "type": "event"
    },
    {
      "anonymous": false,
      "inputs": [
        {
          "indexed": true,
          "internalType": "string",
          "name": "evidenceId",
          "type": "string"
        },
        {
          "indexed": true,
          "internalType": "address",
          "name": "from",
          "type": "address"
        },
        {
          "indexed": true,
          "internalType": "address",
          "name": "to",
          "type": "address"
        },
        {
          "indexed": false,
          "internalType": "enum ForenXEvidence.EvidenceStatus",
          "name": "stage",
          "type": "uint8"
        }
      ],
      "name": "EvidenceTransferred",
      "type": "event"
    },
    {
      "anonymous": false,
      "inputs": [
        {
          "indexed": true,
          "internalType": "string",
          "name": "evidenceId",
          "type": "string"
        },
        {
          "indexed": false,
          "internalType": "bool",
          "name": "tampered",
          "type": "bool"
        },
        {
          "indexed": false,
          "internalType": "address",
          "name": "verifiedBy",
          "type": "address"
        }
      ],
      "name": "EvidenceVerified",
      "type": "event"
    },
    {
      "anonymous": false,
      "inputs": [
        {
          "indexed": true,
          "internalType": "address",
          "name": "user",
          "type": "address"
        },
        {
          "indexed": false,
          "internalType": "enum ForenXEvidence.UserRole",
          "name": "role",
          "type": "uint8"
        }
      ],
      "name": "RoleAssigned",
      "type": "event"
    },
    {
      "inputs": [
        {
          "internalType": "string",
          "name": "_evidenceId",
          "type": "string"
        },
        {
          "internalType": "string",
          "name": "_fileHash",
          "type": "string"
        },
        {
          "internalType": "string",
          "name": "_ipfsHash",
          "type": "string"
        },
        {
          "internalType": "string",
          "name": "_sealId",
          "type": "string"
        },
        {
          "internalType": "string",
          "name": "_digitalSignature",
          "type": "string"
        },
        {
          "internalType": "string",
          "name": "_caseId",
          "type": "string"
        }
      ],
      "name": "addEvidence",
      "outputs": [],
      "stateMutability": "nonpayable",
      "type": "function"
    },
    {
      "inputs": [
        {
          "internalType": "address",
          "name": "_user",
          "type": "address"
        },
        {
          "internalType": "enum ForenXEvidence.UserRole",
          "name": "_role",
          "type": "uint8"
        }
      ],
      "name": "assignRole",
      "outputs": [],
      "stateMutability": "nonpayable",
      "type": "function"
    },
    {
      "inputs": [
        {
          "internalType": "string",
          "name": "_evidenceId",
          "type": "string"
        }
      ],
      "name": "evidenceExistsCheck",
      "outputs": [
        {
          "internalType": "bool",
          "name": "",
          "type": "bool"
        }
      ],
      "stateMutability": "view",
      "type": "function"
    },
    {
      "inputs": [],
      "name": "getAllEvidenceIds",
      "outputs": [
        {
          "internalType": "string[]",
          "name": "",
          "type": "string[]"
        }
      ],
      "stateMutability": "view",
      "type": "function"
    },
    {
      "inputs": [
        {
          "internalType": "string",
          "name": "_evidenceId",
          "type": "string"
        }
      ],
      "name": "getEvidence",
      "outputs": [
        {
          "components": [
            {
              "internalType": "string",
              "name": "evidenceId",
              "type": "string"
            },
            {
              "internalType": "string",
              "name": "fileHash",
              "type": "string"
            },
            {
              "internalType": "string",
              "name": "ipfsHash",
              "type": "string"
            },
            {
              "internalType": "string",
              "name": "sealId",
              "type": "string"
            },
            {
              "internalType": "string",
              "name": "digitalSignature",
              "type": "string"
            },
            {
              "internalType": "address",
              "name": "owner",
              "type": "address"
            },
            {
              "internalType": "address",
              "name": "originalCollector",
              "type": "address"
            },
            {
              "internalType": "uint256",
              "name": "timestamp",
              "type": "uint256"
            },
            {
              "internalType": "enum ForenXEvidence.EvidenceStatus",
              "name": "status",
              "type": "uint8"
            },
            {
              "internalType": "string",
              "name": "caseId",
              "type": "string"
            },
            {
              "internalType": "bool",
              "name": "exists",
              "type": "bool"
            }
          ],
          "internalType": "struct ForenXEvidence.Evidence",
          "name": "",
          "type": "tuple"
        }
      ],
      "stateMutability": "view",
      "type": "function"
    },
    {
      "inputs": [
        {
          "internalType": "string",
          "name": "_evidenceId",
          "type": "string"
        }
      ],
      "name": "getLabReport",
      "outputs": [
        {
          "components": [
            {
              "internalType": "string",
              "name": "reportIpfsHash",
              "type": "string"
            },
            {
              "internalType": "string",
              "name": "reportFileHash",
              "type": "string"
            },
            {
              "internalType": "bool",
              "name": "tampered",
              "type": "bool"
            },
            {
              "internalType": "address",
              "name": "verifiedBy",
              "type": "address"
            },
            {
              "internalType": "uint256",
              "name": "timestamp",
              "type": "uint256"
            }
          ],
          "internalType": "struct ForenXEvidence.LabReport",
          "name": "",
          "type": "tuple"
        }
      ],
      "stateMutability": "view",
      "type": "function"
    },
    {
      "inputs": [
        {
          "internalType": "address",
          "name": "_user",
          "type": "address"
        }
      ],
      "name": "getRole",
      "outputs": [
        {
          "internalType": "enum ForenXEvidence.UserRole",
          "name": "",
          "type": "uint8"
        }
      ],
      "stateMutability": "view",
      "type": "function"
    },
    {
      "inputs": [
        {
          "internalType": "string",
          "name": "_evidenceId",
          "type": "string"
        }
      ],
      "name": "getTransferLogs",
      "outputs": [
        {
          "components": [
            {
              "internalType": "address",
              "name": "from",
              "type": "address"
            },
            {
              "internalType": "address",
              "name": "to",
              "type": "address"
            },
            {
              "internalType": "uint256",
              "name": "timestamp",
              "type": "uint256"
            },
            {
              "internalType": "enum ForenXEvidence.EvidenceStatus",
              "name": "stage",
              "type": "uint8"
            },
            {
              "internalType": "string",
              "name": "notes",
              "type": "string"
            }
          ],
          "internalType": "struct ForenXEvidence.TransferLog[]",
          "name": "",
          "type": "tuple[]"
        }
      ],
      "stateMutability": "view",
      "type": "function"
    },
    {
      "inputs": [],
      "name": "owner",
      "outputs": [
        {
          "internalType": "address",
          "name": "",
          "type": "address"
        }
      ],
      "stateMutability": "view",
      "type": "function"
    },
    {
      "inputs": [
        {
          "internalType": "string",
          "name": "_evidenceId",
          "type": "string"
        },
        {
          "internalType": "address",
          "name": "_newOwner",
          "type": "address"
        },
        {
          "internalType": "enum ForenXEvidence.EvidenceStatus",
          "name": "_newStatus",
          "type": "uint8"
        },
        {
          "internalType": "string",
          "name": "_notes",
          "type": "string"
        }
      ],
      "name": "transferEvidence",
      "outputs": [],
      "stateMutability": "nonpayable",
      "type": "function"
    },
    {
      "inputs": [
        {
          "internalType": "address",
          "name": "",
          "type": "address"
        }
      ],
      "name": "userRoles",
      "outputs": [
        {
          "internalType": "enum ForenXEvidence.UserRole",
          "name": "",
          "type": "uint8"
        }
      ],
      "stateMutability": "view",
      "type": "function"
    },
    {
      "inputs": [
        {
          "internalType": "string",
          "name": "_evidenceId",
          "type": "string"
        },
        {
          "internalType": "string",
          "name": "_computedHash",
          "type": "string"
        },
        {
          "internalType": "string",
          "name": "_reportIpfsHash",
          "type": "string"
        },
        {
          "internalType": "string",
          "name": "_reportFileHash",
          "type": "string"
        },
        {
          "internalType": "bool",
          "name": "_tampered",
          "type": "bool"
        }
      ],
      "name": "verifyEvidence",
      "outputs": [],
      "stateMutability": "nonpayable",
      "type": "function"
    }
  ],
  "bytecode": "0x608060405234801561001057600080fd5b5060008054336001600160a01b0319909116811782558152600460205260409020805460ff191660011790556121e18061004b6000396000f3fe608060405234801561001057600080fd5b50600436106100b45760003560e01c80638da5cb5b116100715780638da5cb5b1461016e57806399c6738514610199578063b16c6ee7146101b9578063d7aef4d0146101d9578063ed336e67146101ec578063fc202af31461020f57600080fd5b80630cdabedf146100b9578063166acb01146100ce57806344276733146100ec57806347549cb714610125578063630a195b1461013857806374d5e1001461014b575b600080fd5b6100cc6100c7366004611932565b61022f565b005b6100d66105a1565b6040516100e39190611a49565b60405180910390f35b6101186100fa366004611ac7565b6001600160a01b031660009081526004602052604090205460ff1690565b6040516100e39190611aff565b6100cc610133366004611b19565b61067a565b6100cc610146366004611c0e565b610b68565b610118610159366004611ac7565b60046020526000908152604090205460ff1681565b600054610181906001600160a01b031681565b6040516001600160a01b0390911681526020016100e3565b6101ac6101a7366004611c49565b610c41565b6040516100e39190611c86565b6101cc6101c7366004611c49565b610e45565b6040516100e39190611d08565b6100cc6101e7366004611e31565b61129b565b6101ff6101fa366004611c49565b611635565b60405190151581526020016100e3565b61022261021d366004611c49565b611663565b6040516100e39190611ebe565b846001816040516102409190611f6a565b908152604051908190036020019020600a015460ff1661027b5760405162461bcd60e51b815260040161027290611f86565b60405180910390fd5b600060018760405161028d9190611f6a565b9081526020016040518091039020905060008680519060200120826001016040516102b89190611ff1565b6040518091039020149050600084806102cf575081155b9050806102dd5760036102e0565b60045b60088401805460ff191660018360078111156102fe576102fe611ae9565b02179055506040805160a0810182528881526020810188905282151581830152336060820152426080820152905160039061033a908c90611f6a565b9081526040519081900360200190208151819061035790826120b6565b506020820151600182019061036c90826120b6565b506040828101516002808401805460608701516001600160a01b031661010002610100600160a81b0319941515949094166001600160a81b03199091161792909217909155608090930151600390920191909155516103cc908b90611f6a565b90815260200160405180910390206040518060a00160405280336001600160a01b03168152602001336001600160a01b031681526020014281526020018560080160009054906101000a900460ff16600781111561042c5761042c611ae9565b815260200183610471576040518060400160405280602081526020017f45766964656e6365207665726966696564202d2068617368206d6174636865738152506104a8565b6040518060400160405280601e81526020017f54414d5045522044455445435445443a2048617368206d69736d6174636800008152505b90528154600181810184556000938452602093849020835160059093020180546001600160a01b039384166001600160a01b0319918216178255948401518183018054919094169516949094179091556040820151600284015560608201516003840180549394939192909160ff19169083600781111561052b5761052b611ae9565b02179055506080820151600482019061054490826120b6565b505050886040516105559190611f6a565b604080519182900382208315158352336020840152917f685b64f6d11023a74a38c4ea6d9e1211a5f157c653e490f38461b4d5f9e60d71910160405180910390a2505050505050505050565b60606005805480602002602001604051908101604052809291908181526020016000905b828210156106715783829060005260206000200180546105e490611fbd565b80601f016020809104026020016040519081016040528092919081815260200182805461061090611fbd565b801561065d5780601f106106325761010080835404028352916020019161065d565b820191906000526020600020905b81548152906001019060200180831161064057829003601f168201915b5050505050815260200190600101906105c5565b50505050905090565b60018660405161068a9190611f6a565b908152604051908190036020019020600a015460ff16156106f85760405162461bcd60e51b815260206004820152602260248201527f466f72656e583a2045766964656e636520494420616c72656164792065786973604482015261747360f01b6064820152608401610272565b60008651116107495760405162461bcd60e51b815260206004820152601b60248201527f466f72656e583a20496e76616c69642065766964656e636520494400000000006044820152606401610272565b600085511161079a5760405162461bcd60e51b815260206004820152601960248201527f466f72656e583a20496e76616c69642066696c652068617368000000000000006044820152606401610272565b60008451116107eb5760405162461bcd60e51b815260206004820152601960248201527f466f72656e583a20496e76616c696420495046532068617368000000000000006044820152606401610272565b600083511161083c5760405162461bcd60e51b815260206004820152601760248201527f466f72656e583a20496e76616c6964207365616c2049440000000000000000006044820152606401610272565b60408051610160810182528781526020810187905290810185905260608101849052608081018390523360a0820181905260c08201524260e0820152610100810160008152602001828152602001600115158152506001876040516108a19190611f6a565b908152604051908190036020019020815181906108be90826120b6565b50602082015160018201906108d390826120b6565b50604082015160028201906108e890826120b6565b50606082015160038201906108fd90826120b6565b506080820151600482019061091290826120b6565b5060a08201516005820180546001600160a01b039283166001600160a01b03199182161790915560c084015160068401805491909316911617905560e08201516007808301919091556101008301516008830180549192909160ff191690600190849081111561098457610984611ae9565b0217905550610120820151600982019061099e90826120b6565b506101409190910151600a909101805460ff1916911515919091179055600580546001810182556000919091527f036b6384b5eca791c62761152d0c79bb0604c104a5fb6f4eb0703f3154bb3db0016109f787826120b6565b50600286604051610a089190611f6a565b90815260200160405180910390206040518060a0016040528060006001600160a01b03168152602001336001600160a01b0316815260200142815260200160006007811115610a5957610a59611ae9565b815260200160405180606001604052806021815260200161218b6021913990528154600181810184556000938452602093849020835160059093020180546001600160a01b039384166001600160a01b0319918216178255948401518183018054919094169516949094179091556040820151600284015560608201516003840180549394939192909160ff191690836007811115610afa57610afa611ae9565b021790555060808201516004820190610b1390826120b6565b5050604051339150610b26908890611f6a565b604051908190038120428252907f5b3dbb58b6a794aae9133347ea6c3c61ec37c12c1a0ce358aae8518e24cd40c89060200160405180910390a3505050505050565b6000546001600160a01b03163314610bc25760405162461bcd60e51b815260206004820152601a60248201527f466f72656e583a204e6f7420636f6e7472616374206f776e65720000000000006044820152606401610272565b6001600160a01b0382166000908152600460205260409020805482919060ff19166001836006811115610bf757610bf7611ae9565b0217905550816001600160a01b03167f4ac36fa53f167ceb85964be512e01de2a3b8bdb9862f917da079deeeff689b3882604051610c359190611aff565b60405180910390a25050565b610c7e6040518060a00160405280606081526020016060815260200160001515815260200160006001600160a01b03168152602001600081525090565b81600181604051610c8f9190611f6a565b908152604051908190036020019020600a015460ff16610cc15760405162461bcd60e51b815260040161027290611f86565b600383604051610cd19190611f6a565b90815260200160405180910390206040518060a0016040529081600082018054610cfa90611fbd565b80601f0160208091040260200160405190810160405280929190818152602001828054610d2690611fbd565b8015610d735780601f10610d4857610100808354040283529160200191610d73565b820191906000526020600020905b815481529060010190602001808311610d5657829003601f168201915b50505050508152602001600182018054610d8c90611fbd565b80601f0160208091040260200160405190810160405280929190818152602001828054610db890611fbd565b8015610e055780601f10610dda57610100808354040283529160200191610e05565b820191906000526020600020905b815481529060010190602001808311610de857829003601f168201915b5050509183525050600282015460ff81161515602083015261010090046001600160a01b0316604082015260039091015460609091015291505b50919050565b610e4d611812565b81600181604051610e5e9190611f6a565b908152604051908190036020019020600a015460ff16610e905760405162461bcd60e51b815260040161027290611f86565b600183604051610ea09190611f6a565b908152602001604051809103902060405180610160016040529081600082018054610eca90611fbd565b80601f0160208091040260200160405190810160405280929190818152602001828054610ef690611fbd565b8015610f435780601f10610f1857610100808354040283529160200191610f43565b820191906000526020600020905b815481529060010190602001808311610f2657829003601f168201915b50505050508152602001600182018054610f5c90611fbd565b80601f0160208091040260200160405190810160405280929190818152602001828054610f8890611fbd565b8015610fd55780601f10610faa57610100808354040283529160200191610fd5565b820191906000526020600020905b815481529060010190602001808311610fb857829003601f168201915b50505050508152602001600282018054610fee90611fbd565b80601f016020809104026020016040519081016040528092919081815260200182805461101a90611fbd565b80156110675780601f1061103c57610100808354040283529160200191611067565b820191906000526020600020905b81548152906001019060200180831161104a57829003601f168201915b5050505050815260200160038201805461108090611fbd565b80601f01602080910402602001604051908101604052809291908181526020018280546110ac90611fbd565b80156110f95780601f106110ce576101008083540402835291602001916110f9565b820191906000526020600020905b8154815290600101906020018083116110dc57829003601f168201915b5050505050815260200160048201805461111290611fbd565b80601f016020809104026020016040519081016040528092919081815260200182805461113e90611fbd565b801561118b5780601f106111605761010080835404028352916020019161118b565b820191906000526020600020905b81548152906001019060200180831161116e57829003601f168201915b505050918352505060058201546001600160a01b03908116602083015260068301541660408201526007808301546060830152600883015460809092019160ff16908111156111dc576111dc611ae9565b60078111156111ed576111ed611ae9565b815260200160098201805461120190611fbd565b80601f016020809104026020016040519081016040528092919081815260200182805461122d90611fbd565b801561127a5780601f1061124f5761010080835404028352916020019161127a565b820191906000526020600020905b81548152906001019060200180831161125d57829003601f168201915b5050509183525050600a919091015460ff1615156020909101529392505050565b836001816040516112ac9190611f6a565b908152604051908190036020019020600a015460ff166112de5760405162461bcd60e51b815260040161027290611f86565b84336001600160a01b03166001826040516112f99190611f6a565b908152604051908190036020019020600501546001600160a01b0316146113625760405162461bcd60e51b815260206004820152601a60248201527f466f72656e583a204e6f742065766964656e6365206f776e65720000000000006044820152606401610272565b6001600160a01b0385166113b85760405162461bcd60e51b815260206004820152601960248201527f466f72656e583a20496e76616c696420726563697069656e74000000000000006044820152606401610272565b336001600160a01b038616036114105760405162461bcd60e51b815260206004820152601f60248201527f466f72656e583a2043616e6e6f74207472616e7366657220746f2073656c66006044820152606401610272565b60006001876040516114229190611f6a565b908152604051908190036020018120600501546001600160a01b031691508690600190611450908a90611f6a565b908152602001604051809103902060050160006101000a8154816001600160a01b0302191690836001600160a01b03160217905550846001886040516114969190611f6a565b908152604051908190036020019020600801805460ff191660018360078111156114c2576114c2611ae9565b02179055506002876040516114d79190611f6a565b90815260200160405180910390206040518060a00160405280836001600160a01b03168152602001886001600160a01b0316815260200142815260200187600781111561152657611526611ae9565b81526020908101879052825460018181018555600094855293829020835160059092020180546001600160a01b039283166001600160a01b0319918216178255928401518186018054919093169316929092179055604082015160028201556060820151600382018054939492939192909160ff1916908360078111156115af576115af611ae9565b0217905550608082015160048201906115c890826120b6565b505050856001600160a01b0316816001600160a01b0316886040516115ed9190611f6a565b60405180910390207fb9e8212bdd8901fe693a630c57a9cfe154ee3929b53ca2bdedbc757d6e9ec896886040516116249190612176565b60405180910390a450505050505050565b60006001826040516116479190611f6a565b908152604051908190036020019020600a015460ff1692915050565b6060816001816040516116769190611f6a565b908152604051908190036020019020600a015460ff166116a85760405162461bcd60e51b815260040161027290611f86565b6002836040516116b89190611f6a565b9081526020016040518091039020805480602002602001604051908101604052809291908181526020016000905b828210156118065760008481526020908190206040805160a0810182526005860290920180546001600160a01b039081168452600182015416938301939093526002830154908201526003820154909190606083019060ff16600781111561175057611750611ae9565b600781111561176157611761611ae9565b815260200160048201805461177590611fbd565b80601f01602080910402602001604051908101604052809291908181526020018280546117a190611fbd565b80156117ee5780601f106117c3576101008083540402835291602001916117ee565b820191906000526020600020905b8154815290600101906020018083116117d157829003601f168201915b505050505081525050815260200190600101906116e6565b50505050915050919050565b604051806101600160405280606081526020016060815260200160608152602001606081526020016060815260200160006001600160a01b0316815260200160006001600160a01b03168152602001600081526020016000600781111561187b5761187b611ae9565b815260606020820152600060409091015290565b634e487b7160e01b600052604160045260246000fd5b600082601f8301126118b657600080fd5b813567ffffffffffffffff808211156118d1576118d161188f565b604051601f8301601f19908116603f011681019082821181831017156118f9576118f961188f565b8160405283815286602085880101111561191257600080fd5b836020870160208301376000602085830101528094505050505092915050565b600080600080600060a0868803121561194a57600080fd5b853567ffffffffffffffff8082111561196257600080fd5b61196e89838a016118a5565b9650602088013591508082111561198457600080fd5b61199089838a016118a5565b955060408801359150808211156119a657600080fd5b6119b289838a016118a5565b945060608801359150808211156119c857600080fd5b506119d5888289016118a5565b925050608086013580151581146119eb57600080fd5b809150509295509295909350565b60005b83811015611a145781810151838201526020016119fc565b50506000910152565b60008151808452611a358160208601602086016119f9565b601f01601f19169290920160200192915050565b6000602080830181845280855180835260408601915060408160051b870101925083870160005b82811015611a9e57603f19888603018452611a8c858351611a1d565b94509285019290850190600101611a70565b5092979650505050505050565b80356001600160a01b0381168114611ac257600080fd5b919050565b600060208284031215611ad957600080fd5b611ae282611aab565b9392505050565b634e487b7160e01b600052602160045260246000fd5b6020810160078310611b1357611b13611ae9565b91905290565b60008060008060008060c08789031215611b3257600080fd5b863567ffffffffffffffff80821115611b4a57600080fd5b611b568a838b016118a5565b97506020890135915080821115611b6c57600080fd5b611b788a838b016118a5565b96506040890135915080821115611b8e57600080fd5b611b9a8a838b016118a5565b95506060890135915080821115611bb057600080fd5b611bbc8a838b016118a5565b94506080890135915080821115611bd257600080fd5b611bde8a838b016118a5565b935060a0890135915080821115611bf457600080fd5b50611c0189828a016118a5565b9150509295509295509295565b60008060408385031215611c2157600080fd5b611c2a83611aab565b9150602083013560078110611c3e57600080fd5b809150509250929050565b600060208284031215611c5b57600080fd5b813567ffffffffffffffff811115611c7257600080fd5b611c7e848285016118a5565b949350505050565b602081526000825160a06020840152611ca260c0840182611a1d565b90506020840151601f19848303016040850152611cbf8282611a1d565b91505060408401511515606084015260018060a01b036060850151166080840152608084015160a08401528091505092915050565b60088110611d0457611d04611ae9565b9052565b6020815260008251610160806020850152611d27610180850183611a1d565b91506020850151601f1980868503016040870152611d458483611a1d565b93506040870151915080868503016060870152611d628483611a1d565b93506060870151915080868503016080870152611d7f8483611a1d565b935060808701519150808685030160a0870152611d9c8483611a1d565b935060a08701519150611dba60c08701836001600160a01b03169052565b60c08701516001600160a01b03811660e0880152915060e0870151610100878101919091528701519150610120611df381880184611cf4565b80880151925050610140818786030181880152611e108584611a1d565b94508088015192505050611e278286018215159052565b5090949350505050565b60008060008060808587031215611e4757600080fd5b843567ffffffffffffffff80821115611e5f57600080fd5b611e6b888389016118a5565b9550611e7960208801611aab565b94506040870135915060088210611e8f57600080fd5b90925060608601359080821115611ea557600080fd5b50611eb2878288016118a5565b91505092959194509250565b60006020808301818452808551808352604092508286019150828160051b87010184880160005b83811015611f5c57888303603f19018552815180516001600160a01b039081168552888201511688850152868101518785015260608082015160a09190611f2e82880182611cf4565b5050608091820151918501819052611f4885820183611a1d565b968901969450505090860190600101611ee5565b509098975050505050505050565b60008251611f7c8184602087016119f9565b9190910192915050565b6020808252601a908201527f466f72656e583a2045766964656e6365206e6f7420666f756e64000000000000604082015260600190565b600181811c90821680611fd157607f821691505b602082108103610e3f57634e487b7160e01b600052602260045260246000fd5b6000808354611fff81611fbd565b60018281168015612017576001811461202c5761205b565b60ff198416875282151583028701945061205b565b8760005260208060002060005b858110156120525781548a820152908401908201612039565b50505082870194505b50929695505050505050565b601f8211156120b157600081815260208120601f850160051c8101602086101561208e5750805b601f850160051c820191505b818110156120ad5782815560010161209a565b5050505b505050565b815167ffffffffffffffff8111156120d0576120d061188f565b6120e4816120de8454611fbd565b84612067565b602080601f83116001811461211957600084156121015750858301515b600019600386901b1c1916600185901b1785556120ad565b600085815260208120601f198616915b8281101561214857888601518255948401946001909101908401612129565b50858210156121665787850151600019600388901b60f8161c191681555b5050505050600190811b01905550565b602081016121848284611cf4565b9291505056fe45766964656e636520636f6c6c656374656420616e642072656769737465726564a2646970667358221220367dd8f94acc819991acb5bc3e2d22c7484be7b575fe3b3af313be6feea6462f64736f6c63430008130033",
  "linkReferences": {},
  "deployedLinkReferences": {}
}